{
  "_format": "hh-sol-artifact-1",
  "contractName": "SkillBridgeMain",
  "sourceName": "SkillBridgeMain.sol",
  "abi": [
    {
      "inputs": [
        {
          "internalType": "address",
          "name": "_sbtToken",
          "type": "address"
        },
        {
          "internalType": "address",
          "name": "_nftContract",
          "type": "address"
        },
        {
          "internalType": "address",
          "name": "initialOwner",
          "type": "address"
        }
      ],
      "stateMutability": "nonpayable",
      "type": "constructor"
    },
    {
      "inputs": [
        {
          "internalType": "address",
          "name": "owner",
          "type": "address"
        }
      ],
      "name": "OwnableInvalidOwner",
      "type": "error"
    },
    {
      "inputs": [
        {
          "internalType": "address",
          "name": "account",
          "type": "address"
        }
      ],
      "name": "OwnableUnauthorizedAccount",
      "type": "error"
    },
    {
      "anonymous": false,
      "inputs": [
        {
          "indexed": true,
          "internalType": "address",
          "name": "student",
          "type": "address"
        },
        {
          "indexed": true,
          "internalType": "uint256",
          "name": "courseId",
          "type": "uint256"
        },
        {
          "indexed": false,
          "internalType": "uint256",
          "name": "nftTokenId",
          "type": "uint256"
        }
      ],
      "name": "CourseCompleted",
      "type": "event"
    },
    {
      "anonymous": false,
      "inputs": [
        {
          "indexed": true,
          "internalType": "uint256",
          "name": "courseId",
          "type": "uint256"
        },
        {
          "indexed": true,
          "internalType": "address",
          "name": "instructor",
          "type": "address"
        },
        {
          "indexed": false,
          "internalType": "string",
          "name": "title",
          "type": "string"
        },
        {
          "indexed": false,
          "internalType": "uint256",
          "name": "price",
          "type": "uint256"
        }
      ],
      "name": "CourseCreated",
      "type": "event"
    },
    {
      "anonymous": false,
      "inputs": [
        {
          "indexed": true,
          "internalType": "address",
          "name": "student",
          "type": "address"
        },
        {
          "indexed": true,
          "internalType": "uint256",
          "name": "courseId",
          "type": "uint256"
        },
        {
          "indexed": false,
          "internalType": "uint256",
          "name": "price",
          "type": "uint256"
        }
      ],
      "name": "CourseEnrolled",
      "type": "event"
    },
    {
      "anonymous": false,
      "inputs": [
        {
          "indexed": true,
          "internalType": "address",
          "name": "previousOwner",
          "type": "address"
        },
        {
          "indexed": true,
          "internalType": "address",
          "name": "newOwner",
          "type": "address"
        }
      ],
      "name": "OwnershipTransferred",
      "type": "event"
    },
    {
      "anonymous": false,
      "inputs": [
        {
          "indexed": true,
          "internalType": "address",
          "name": "user",
          "type": "address"
        },
        {
          "indexed": false,
          "internalType": "uint256",
          "name": "score",
          "type": "uint256"
        },
        {
          "indexed": false,
          "internalType": "uint256",
          "name": "tokensEarned",
          "type": "uint256"
        }
      ],
      "name": "TestCompleted",
      "type": "event"
    },
    {
      "anonymous": false,
      "inputs": [
        {
          "indexed": true,
          "internalType": "address",
          "name": "buyer",
          "type": "address"
        },
        {
          "indexed": false,
          "internalType": "uint256",
          "name": "amount",
          "type": "uint256"
        },
        {
          "indexed": false,
          "internalType": "uint256",
          "name": "ethPaid",
          "type": "uint256"
        }
      ],
      "name": "TokensPurchased",
      "type": "event"
    },
    {
      "inputs": [],
      "name": "TOKEN_PRICE",
      "outputs": [
        {
          "internalType": "uint256",
          "name": "",
          "type": "uint256"
        }
      ],
      "stateMutability": "view",
      "type": "function"
    },
    {
      "inputs": [
        {
          "internalType": "uint256",
          "name": "amount",
          "type": "uint256"
        }
      ],
      "name": "buyTokens",
      "outputs": [],
      "stateMutability": "payable",
      "type": "function"
    },
    {
      "inputs": [
        {
          "internalType": "uint256",
          "name": "_courseId",
          "type": "uint256"
        },
        {
          "internalType": "string",
          "name": "_resultCID",
          "type": "string"
        }
      ],
      "name": "completeCourse",
      "outputs": [],
      "stateMutability": "nonpayable",
      "type": "function"
    },
    {
      "inputs": [
        {
          "internalType": "uint256",
          "name": "_score",
          "type": "uint256"
        }
      ],
      "name": "completeTest",
      "outputs": [],
      "stateMutability": "nonpayable",
      "type": "function"
    },
    {
      "inputs": [
        {
          "internalType": "uint256",
          "name": "",
          "type": "uint256"
        }
      ],
      "name": "courses",
      "outputs": [
        {
          "internalType": "uint256",
          "name": "id",
          "type": "uint256"
        },
        {
          "internalType": "address",
          "name": "instructor",
          "type": "address"
        },
        {
          "internalType": "string",
          "name": "title",
          "type": "string"
        },
        {
          "internalType": "uint256",
          "name": "price",
          "type": "uint256"
        },
        {
          "internalType": "string",
          "name": "metadataCID",
          "type": "string"
        },
        {
          "internalType": "bool",
          "name": "isActive",
          "type": "bool"
        },
        {
          "internalType": "uint256",
          "name": "createdAt",
          "type": "uint256"
        }
      ],
      "stateMutability": "view",
      "type": "function"
    },
    {
      "inputs": [
        {
          "internalType": "string",
          "name": "_metadataCID",
          "type": "string"
        },
        {
          "internalType": "string",
          "name": "_title",
          "type": "string"
        },
        {
          "internalType": "uint256",
          "name": "_price",
          "type": "uint256"
        }
      ],
      "name": "createCourse",
      "outputs": [],
      "stateMutability": "nonpayable",
      "type": "function"
    },
    {
      "inputs": [
        {
          "internalType": "uint256",
          "name": "_courseId",
          "type": "uint256"
        }
      ],
      "name": "enrollInCourse",
      "outputs": [],
      "stateMutability": "nonpayable",
      "type": "function"
    },
    {
      "inputs": [
        {
          "internalType": "address",
          "name": "instructor",
          "type": "address"
        }
      ],
      "name": "getInstructorCourses",
      "outputs": [
        {
          "internalType": "uint256[]",
          "name": "",
          "type": "uint256[]"
        }
      ],
      "stateMutability": "view",
      "type": "function"
    },
    {
      "inputs": [
        {
          "internalType": "address",
          "name": "user",
          "type": "address"
        }
      ],
      "name": "getProfileMetadata",
      "outputs": [
        {
          "internalType": "string",
          "name": "",
          "type": "string"
        }
      ],
      "stateMutability": "view",
      "type": "function"
    },
    {
      "inputs": [
        {
          "internalType": "address",
          "name": "user",
          "type": "address"
        }
      ],
      "name": "getUserEnrolledCourses",
      "outputs": [
        {
          "internalType": "uint256[]",
          "name": "",
          "type": "uint256[]"
        }
      ],
      "stateMutability": "view",
      "type": "function"
    },
    {
      "inputs": [
        {
          "internalType": "address",
          "name": "user",
          "type": "address"
        },
        {
          "internalType": "uint256",
          "name": "courseId",
          "type": "uint256"
        }
      ],
      "name": "hasAccessToCourse",
      "outputs": [
        {
          "internalType": "bool",
          "name": "",
          "type": "bool"
        }
      ],
      "stateMutability": "view",
      "type": "function"
    },
    {
      "inputs": [
        {
          "internalType": "address",
          "name": "",
          "type": "address"
        },
        {
          "internalType": "uint256",
          "name": "",
          "type": "uint256"
        }
      ],
      "name": "instructorCourses",
      "outputs": [
        {
          "internalType": "uint256",
          "name": "",
          "type": "uint256"
        }
      ],
      "stateMutability": "view",
      "type": "function"
    },
    {
      "inputs": [],
      "name": "nextCourseId",
      "outputs": [
        {
          "internalType": "uint256",
          "name": "",
          "type": "uint256"
        }
      ],
      "stateMutability": "view",
      "type": "function"
    },
    {
      "inputs": [],
      "name": "nftCertificate",
      "outputs": [
        {
          "internalType": "contract SkillBridgeNFT",
          "name": "",
          "type": "address"
        }
      ],
      "stateMutability": "view",
      "type": "function"
    },
    {
      "inputs": [],
      "name": "owner",
      "outputs": [
        {
          "internalType": "address",
          "name": "",
          "type": "address"
        }
      ],
      "stateMutability": "view",
      "type": "function"
    },
    {
      "inputs": [],
      "name": "renounceOwnership",
      "outputs": [],
      "stateMutability": "nonpayable",
      "type": "function"
    },
    {
      "inputs": [
        {
          "internalType": "uint256",
          "name": "_score",
          "type": "uint256"
        },
        {
          "internalType": "uint256",
          "name": "_fee",
          "type": "uint256"
        }
      ],
      "name": "retakeTest",
      "outputs": [],
      "stateMutability": "nonpayable",
      "type": "function"
    },
    {
      "inputs": [],
      "name": "sbtToken",
      "outputs": [
        {
          "internalType": "contract IERC20",
          "name": "",
          "type": "address"
        }
      ],
      "stateMutability": "view",
      "type": "function"
    },
    {
      "inputs": [
        {
          "internalType": "string",
          "name": "cid",
          "type": "string"
        }
      ],
      "name": "setProfileMetadata",
      "outputs": [],
      "stateMutability": "nonpayable",
      "type": "function"
    },
    {
      "inputs": [
        {
          "internalType": "address",
          "name": "newOwner",
          "type": "address"
        }
      ],
      "name": "transferOwnership",
      "outputs": [],
      "stateMutability": "nonpayable",
      "type": "function"
    },
    {
      "inputs": [
        {
          "internalType": "address",
          "name": "",
          "type": "address"
        },
        {
          "internalType": "uint256",
          "name": "",
          "type": "uint256"
        }
      ],
      "name": "userCourses",
      "outputs": [
        {
          "internalType": "uint256",
          "name": "",
          "type": "uint256"
        }
      ],
      "stateMutability": "view",
      "type": "function"
    },
    {
      "inputs": [
        {
          "internalType": "address",
          "name": "",
          "type": "address"
        }
      ],
      "name": "userProfileCid",
      "outputs": [
        {
          "internalType": "string",
          "name": "",
          "type": "string"
        }
      ],
      "stateMutability": "view",
      "type": "function"
    },
    {
      "inputs": [
        {
          "internalType": "address",
          "name": "",
          "type": "address"
        }
      ],
      "name": "users",
      "outputs": [
        {
          "internalType": "address",
          "name": "wallet",
          "type": "address"
        },
        {
          "internalType": "uint256",
          "name": "testScore",
          "type": "uint256"
        },
        {
          "internalType": "uint256",
          "name": "tokensEarned",
          "type": "uint256"
        },
        {
          "internalType": "uint256",
          "name": "coursesCompleted",
          "type": "uint256"
        },
        {
          "internalType": "bool",
          "name": "hasCompletedTest",
          "type": "bool"
        }
      ],
      "stateMutability": "view",
      "type": "function"
    }
  ],
  "bytecode": "0x60806040523480156200001157600080fd5b50604051620032ef380380620032ef833981810160405281019062000037919062000280565b80600073ffffffffffffffffffffffffffffffffffffffff168173ffffffffffffffffffffffffffffffffffffffff1603620000ad5760006040517f1e4fbdf7000000000000000000000000000000000000000000000000000000008152600401620000a49190620002ed565b60405180910390fd5b620000be816200015260201b60201c565b5082600160006101000a81548173ffffffffffffffffffffffffffffffffffffffff021916908373ffffffffffffffffffffffffffffffffffffffff16021790555081600260006101000a81548173ffffffffffffffffffffffffffffffffffffffff021916908373ffffffffffffffffffffffffffffffffffffffff16021790555060016003819055505050506200030a565b60008060009054906101000a900473ffffffffffffffffffffffffffffffffffffffff169050816000806101000a81548173ffffffffffffffffffffffffffffffffffffffff021916908373ffffffffffffffffffffffffffffffffffffffff1602179055508173ffffffffffffffffffffffffffffffffffffffff168173ffffffffffffffffffffffffffffffffffffffff167f8be0079c531659141344cd1fd0a4f28419497f9722a3daafe3b4186f6b6457e060405160405180910390a35050565b600080fd5b600073ffffffffffffffffffffffffffffffffffffffff82169050919050565b600062000248826200021b565b9050919050565b6200025a816200023b565b81146200026657600080fd5b50565b6000815190506200027a816200024f565b92915050565b6000806000606084860312156200029c576200029b62000216565b5b6000620002ac8682870162000269565b9350506020620002bf8682870162000269565b9250506040620002d28682870162000269565b9150509250925092565b620002e7816200023b565b82525050565b6000602082019050620003046000830184620002dc565b92915050565b612fd5806200031a6000396000f3fe6080604052600436106101405760003560e01c8063829ae6f4116100b6578063ade778f41161006f578063ade778f41461048f578063c9d4188f146104b8578063d2d8cb67146104e1578063e359d9971461050c578063ec57c20b14610537578063f2fde38b1461057457610140565b8063829ae6f41461033d5780638da5cb5b1461037a57806393a05c20146103a557806396f979d2146103e2578063a4adb24b14610425578063a87430ba1461044e57610140565b80635e52da27116101085780635e52da2714610241578063690e84341461026a5780636a0304bf146102935780636ceff219146102be578063715018a6146102fb5780637d83daf21461031257610140565b80630e3fecd2146101455780633610724e1461016e578063403e27071461018a57806344674e43146101c757806350774a1514610204575b600080fd5b34801561015157600080fd5b5061016c60048036038101906101679190611db4565b61059d565b005b61018860048036038101906101839190611df4565b610919565b005b34801561019657600080fd5b506101b160048036038101906101ac9190611e7f565b610ab7565b6040516101be9190611f3c565b60405180910390f35b3480156101d357600080fd5b506101ee60048036038101906101e99190611e7f565b610b88565b6040516101fb919061201c565b60405180910390f35b34801561021057600080fd5b5061022b6004803603810190610226919061203e565b610c1f565b6040516102389190612099565b60405180910390f35b34801561024d57600080fd5b5061026860048036038101906102639190611df4565b610ce7565b005b34801561027657600080fd5b50610291600480360381019061028c91906121e9565b611122565b005b34801561029f57600080fd5b506102a86112bb565b6040516102b591906122a4565b60405180910390f35b3480156102ca57600080fd5b506102e560048036038101906102e0919061203e565b6112e1565b6040516102f291906122ce565b60405180910390f35b34801561030757600080fd5b50610310611312565b005b34801561031e57600080fd5b50610327611326565b60405161033491906122ce565b60405180910390f35b34801561034957600080fd5b50610364600480360381019061035f9190611e7f565b61132c565b604051610371919061201c565b60405180910390f35b34801561038657600080fd5b5061038f6113c3565b60405161039c91906122f8565b60405180910390f35b3480156103b157600080fd5b506103cc60048036038101906103c7919061203e565b6113ec565b6040516103d991906122ce565b60405180910390f35b3480156103ee57600080fd5b5061040960048036038101906104049190611df4565b61141d565b60405161041c9796959493929190612313565b60405180910390f35b34801561043157600080fd5b5061044c60048036038101906104479190612390565b61159c565b005b34801561045a57600080fd5b5061047560048036038101906104709190611e7f565b61172b565b60405161048695949392919061241b565b60405180910390f35b34801561049b57600080fd5b506104b660048036038101906104b1919061246e565b61178e565b005b3480156104c457600080fd5b506104df60048036038101906104da9190611df4565b6117de565b005b3480156104ed57600080fd5b506104f6611ac1565b60405161050391906122ce565b60405180910390f35b34801561051857600080fd5b50610521611acb565b60405161052e91906124d8565b60405180910390f35b34801561054357600080fd5b5061055e60048036038101906105599190611e7f565b611af1565b60405161056b9190611f3c565b60405180910390f35b34801561058057600080fd5b5061059b60048036038101906105969190611e7f565b611b91565b005b600460003373ffffffffffffffffffffffffffffffffffffffff1673ffffffffffffffffffffffffffffffffffffffff16815260200190815260200160002060040160009054906101000a900460ff1661062c576040517f08c379a00000000000000000000000000000000000000000000000000000000081526004016106239061253f565b60405180910390fd5b600160009054906101000a900473ffffffffffffffffffffffffffffffffffffffff1673ffffffffffffffffffffffffffffffffffffffff166323b872dd3330846040518463ffffffff1660e01b815260040161068b9392919061255f565b6020604051808303816000875af11580156106aa573d6000803e3d6000fd5b505050506040513d601f19601f820116820180604052508101906106ce91906125c2565b61070d576040517f08c379a00000000000000000000000000000000000000000000000000000000081526004016107049061263b565b60405180910390fd5b81600460003373ffffffffffffffffffffffffffffffffffffffff1673ffffffffffffffffffffffffffffffffffffffff16815260200190815260200160002060010181905550670de0b6b3a764000082610768919061268a565b600460003373ffffffffffffffffffffffffffffffffffffffff1673ffffffffffffffffffffffffffffffffffffffff16815260200190815260200160002060020160008282546107b991906126cc565b92505081905550600160009054906101000a900473ffffffffffffffffffffffffffffffffffffffff1673ffffffffffffffffffffffffffffffffffffffff1663a9059cbb33670de0b6b3a764000085610813919061268a565b6040518363ffffffff1660e01b8152600401610830929190612700565b6020604051808303816000875af115801561084f573d6000803e3d6000fd5b505050506040513d601f19601f8201168201806040525081019061087391906125c2565b6108b2576040517f08c379a00000000000000000000000000000000000000000000000000000000081526004016108a990612775565b60405180910390fd5b3373ffffffffffffffffffffffffffffffffffffffff167f2324acb3fe79183632ceecbae105261c5d54e95afd1cfbe33ebffc2b05652fd283670de0b6b3a7640000856108ff919061268a565b60405161090d929190612795565b60405180910390a25050565b600081655af3107a400061092d919061268a565b9050803414610971576040517f08c379a00000000000000000000000000000000000000000000000000000000081526004016109689061280a565b60405180910390fd5b600160009054906101000a900473ffffffffffffffffffffffffffffffffffffffff1673ffffffffffffffffffffffffffffffffffffffff1663a9059cbb33670de0b6b3a7640000856109c4919061268a565b6040518363ffffffff1660e01b81526004016109e1929190612700565b6020604051808303816000875af1158015610a00573d6000803e3d6000fd5b505050506040513d601f19601f82011682018060405250810190610a2491906125c2565b610a63576040517f08c379a0000000000000000000000000000000000000000000000000000000008152600401610a5a90612876565b60405180910390fd5b3373ffffffffffffffffffffffffffffffffffffffff167f8fafebcaf9d154343dad25669bfa277f4fbacd7ac6b0c4fed522580e040a0f338334604051610aab929190612795565b60405180910390a25050565b6060600860008373ffffffffffffffffffffffffffffffffffffffff1673ffffffffffffffffffffffffffffffffffffffff1681526020019081526020016000208054610b03906128c5565b80601f0160208091040260200160405190810160405280929190818152602001828054610b2f906128c5565b8015610b7c5780601f10610b5157610100808354040283529160200191610b7c565b820191906000526020600020905b815481529060010190602001808311610b5f57829003601f168201915b50505050509050919050565b6060600760008373ffffffffffffffffffffffffffffffffffffffff1673ffffffffffffffffffffffffffffffffffffffff168152602001908152602001600020805480602002602001604051908101604052809291908181526020018280548015610c1357602002820191906000526020600020905b815481526020019060010190808311610bff575b50505050509050919050565b60008060056000848152602001908152602001600020905060005b8160050180549050811015610cda578473ffffffffffffffffffffffffffffffffffffffff16826005018281548110610c7657610c756128f6565b5b9060005260206000200160009054906101000a900473ffffffffffffffffffffffffffffffffffffffff1673ffffffffffffffffffffffffffffffffffffffff1603610cc757600192505050610ce1565b8080610cd290612925565b915050610c3a565b5060009150505b92915050565b60006005600083815260200190815260200160002090508060060160009054906101000a900460ff16610d4f576040517f08c379a0000000000000000000000000000000000000000000000000000000008152600401610d46906129b9565b60405180910390fd5b600460003373ffffffffffffffffffffffffffffffffffffffff1673ffffffffffffffffffffffffffffffffffffffff16815260200190815260200160002060040160009054906101000a900460ff16610dde576040517f08c379a0000000000000000000000000000000000000000000000000000000008152600401610dd590612a25565b60405180910390fd5b60008160030154905060006064605083610df8919061268a565b610e029190612a74565b905060008183610e129190612aa5565b9050600160009054906101000a900473ffffffffffffffffffffffffffffffffffffffff1673ffffffffffffffffffffffffffffffffffffffff166323b872dd338660010160009054906101000a900473ffffffffffffffffffffffffffffffffffffffff16856040518463ffffffff1660e01b8152600401610e979392919061255f565b6020604051808303816000875af1158015610eb6573d6000803e3d6000fd5b505050506040513d601f19601f82011682018060405250810190610eda91906125c2565b610f19576040517f08c379a0000000000000000000000000000000000000000000000000000000008152600401610f1090612b25565b60405180910390fd5b600160009054906101000a900473ffffffffffffffffffffffffffffffffffffffff1673ffffffffffffffffffffffffffffffffffffffff166323b872dd33610f606113c3565b846040518463ffffffff1660e01b8152600401610f7f9392919061255f565b6020604051808303816000875af1158015610f9e573d6000803e3d6000fd5b505050506040513d601f19601f82011682018060405250810190610fc291906125c2565b611001576040517f08c379a0000000000000000000000000000000000000000000000000000000008152600401610ff890612b91565b60405180910390fd5b83600501339080600181540180825580915050600190039060005260206000200160009091909190916101000a81548173ffffffffffffffffffffffffffffffffffffffff021916908373ffffffffffffffffffffffffffffffffffffffff160217905550600660003373ffffffffffffffffffffffffffffffffffffffff1673ffffffffffffffffffffffffffffffffffffffff168152602001908152602001600020859080600181540180825580915050600190039060005260206000200160009091909190915055843373ffffffffffffffffffffffffffffffffffffffff167fb975c93c50aa94d9c86dd9fb379701dc0bdc2aa1c503bf46d9cf4f313e0f47fc8560405161111391906122ce565b60405180910390a35050505050565b61112c3383610c1f565b61116b576040517f08c379a000000000000000000000000000000000000000000000000000000000815260040161116290612bfd565b60405180910390fd5b6000600260009054906101000a900473ffffffffffffffffffffffffffffffffffffffff1673ffffffffffffffffffffffffffffffffffffffff16630712249f33846040518363ffffffff1660e01b81526004016111ca929190612c1d565b6020604051808303816000875af11580156111e9573d6000803e3d6000fd5b505050506040513d601f19601f8201168201806040525081019061120d9190612c62565b9050600460003373ffffffffffffffffffffffffffffffffffffffff1673ffffffffffffffffffffffffffffffffffffffff168152602001908152602001600020600301600081548092919061126290612925565b9190505550823373ffffffffffffffffffffffffffffffffffffffff167f69598479254610bc37273ec300171cd231505beb1ee68d360cbd78c1bd818278836040516112ae91906122ce565b60405180910390a3505050565b600260009054906101000a900473ffffffffffffffffffffffffffffffffffffffff1681565b600760205281600052604060002081815481106112fd57600080fd5b90600052602060002001600091509150505481565b61131a611c17565b6113246000611c9e565b565b60035481565b6060600660008373ffffffffffffffffffffffffffffffffffffffff1673ffffffffffffffffffffffffffffffffffffffff1681526020019081526020016000208054806020026020016040519081016040528092919081815260200182805480156113b757602002820191906000526020600020905b8154815260200190600101908083116113a3575b50505050509050919050565b60008060009054906101000a900473ffffffffffffffffffffffffffffffffffffffff16905090565b6006602052816000526040600020818154811061140857600080fd5b90600052602060002001600091509150505481565b60056020528060005260406000206000915090508060000154908060010160009054906101000a900473ffffffffffffffffffffffffffffffffffffffff169080600201805461146c906128c5565b80601f0160208091040260200160405190810160405280929190818152602001828054611498906128c5565b80156114e55780601f106114ba576101008083540402835291602001916114e5565b820191906000526020600020905b8154815290600101906020018083116114c857829003601f168201915b505050505090806003015490806004018054611500906128c5565b80601f016020809104026020016040519081016040528092919081815260200182805461152c906128c5565b80156115795780601f1061154e57610100808354040283529160200191611579565b820191906000526020600020905b81548152906001019060200180831161155c57829003601f168201915b5050505050908060060160009054906101000a900460ff16908060070154905087565b6000600360008154809291906115b190612925565b9190505590506000600560008381526020019081526020016000209050818160000181905550338160010160006101000a81548173ffffffffffffffffffffffffffffffffffffffff021916908373ffffffffffffffffffffffffffffffffffffffff1602179055508381600201908161162b9190612e31565b50828160030181905550848160040190816116469190612e31565b5060018160060160006101000a81548160ff021916908315150217905550428160070181905550600760003373ffffffffffffffffffffffffffffffffffffffff1673ffffffffffffffffffffffffffffffffffffffff1681526020019081526020016000208290806001815401808255809150506001900390600052602060002001600090919091909150553373ffffffffffffffffffffffffffffffffffffffff16827f27b444394f1a7b0aa73d468ff76433d70ccbd1517709b5a2b06eaf249a4ddcf0868660405161171c929190612f03565b60405180910390a35050505050565b60046020528060005260406000206000915090508060000160009054906101000a900473ffffffffffffffffffffffffffffffffffffffff16908060010154908060020154908060030154908060040160009054906101000a900460ff16905085565b80600860003373ffffffffffffffffffffffffffffffffffffffff1673ffffffffffffffffffffffffffffffffffffffff16815260200190815260200160002090816117da9190612e31565b5050565b600460003373ffffffffffffffffffffffffffffffffffffffff1673ffffffffffffffffffffffffffffffffffffffff16815260200190815260200160002060040160009054906101000a900460ff161561186e576040517f08c379a000000000000000000000000000000000000000000000000000000000815260040161186590612f7f565b60405180910390fd5b6000670de0b6b3a764000082611884919061268a565b90506040518060a001604052803373ffffffffffffffffffffffffffffffffffffffff1681526020018381526020018281526020016000815260200160011515815250600460003373ffffffffffffffffffffffffffffffffffffffff1673ffffffffffffffffffffffffffffffffffffffff16815260200190815260200160002060008201518160000160006101000a81548173ffffffffffffffffffffffffffffffffffffffff021916908373ffffffffffffffffffffffffffffffffffffffff16021790555060208201518160010155604082015181600201556060820151816003015560808201518160040160006101000a81548160ff021916908315150217905550905050600160009054906101000a900473ffffffffffffffffffffffffffffffffffffffff1673ffffffffffffffffffffffffffffffffffffffff1663a9059cbb33836040518363ffffffff1660e01b81526004016119eb929190612700565b6020604051808303816000875af1158015611a0a573d6000803e3d6000fd5b505050506040513d601f19601f82011682018060405250810190611a2e91906125c2565b611a6d576040517f08c379a0000000000000000000000000000000000000000000000000000000008152600401611a6490612775565b60405180910390fd5b3373ffffffffffffffffffffffffffffffffffffffff167f2324acb3fe79183632ceecbae105261c5d54e95afd1cfbe33ebffc2b05652fd28383604051611ab5929190612795565b60405180910390a25050565b655af3107a400081565b600160009054906101000a900473ffffffffffffffffffffffffffffffffffffffff1681565b60086020528060005260406000206000915090508054611b10906128c5565b80601f0160208091040260200160405190810160405280929190818152602001828054611b3c906128c5565b8015611b895780601f10611b5e57610100808354040283529160200191611b89565b820191906000526020600020905b815481529060010190602001808311611b6c57829003601f168201915b505050505081565b611b99611c17565b600073ffffffffffffffffffffffffffffffffffffffff168173ffffffffffffffffffffffffffffffffffffffff1603611c0b5760006040517f1e4fbdf7000000000000000000000000000000000000000000000000000000008152600401611c0291906122f8565b60405180910390fd5b611c1481611c9e565b50565b611c1f611d62565b73ffffffffffffffffffffffffffffffffffffffff16611c3d6113c3565b73ffffffffffffffffffffffffffffffffffffffff1614611c9c57611c60611d62565b6040517f118cdaa7000000000000000000000000000000000000000000000000000000008152600401611c9391906122f8565b60405180910390fd5b565b60008060009054906101000a900473ffffffffffffffffffffffffffffffffffffffff169050816000806101000a81548173ffffffffffffffffffffffffffffffffffffffff021916908373ffffffffffffffffffffffffffffffffffffffff1602179055508173ffffffffffffffffffffffffffffffffffffffff168173ffffffffffffffffffffffffffffffffffffffff167f8be0079c531659141344cd1fd0a4f28419497f9722a3daafe3b4186f6b6457e060405160405180910390a35050565b600033905090565b6000604051905090565b600080fd5b600080fd5b6000819050919050565b611d9181611d7e565b8114611d9c57600080fd5b50565b600081359050611dae81611d88565b92915050565b60008060408385031215611dcb57611dca611d74565b5b6000611dd985828601611d9f565b9250506020611dea85828601611d9f565b9150509250929050565b600060208284031215611e0a57611e09611d74565b5b6000611e1884828501611d9f565b91505092915050565b600073ffffffffffffffffffffffffffffffffffffffff82169050919050565b6000611e4c82611e21565b9050919050565b611e5c81611e41565b8114611e6757600080fd5b50565b600081359050611e7981611e53565b92915050565b600060208284031215611e9557611e94611d74565b5b6000611ea384828501611e6a565b91505092915050565b600081519050919050565b600082825260208201905092915050565b60005b83811015611ee6578082015181840152602081019050611ecb565b60008484015250505050565b6000601f19601f8301169050919050565b6000611f0e82611eac565b611f188185611eb7565b9350611f28818560208601611ec8565b611f3181611ef2565b840191505092915050565b60006020820190508181036000830152611f568184611f03565b905092915050565b600081519050919050565b600082825260208201905092915050565b6000819050602082019050919050565b611f9381611d7e565b82525050565b6000611fa58383611f8a565b60208301905092915050565b6000602082019050919050565b6000611fc982611f5e565b611fd38185611f69565b9350611fde83611f7a565b8060005b8381101561200f578151611ff68882611f99565b975061200183611fb1565b925050600181019050611fe2565b5085935050505092915050565b600060208201905081810360008301526120368184611fbe565b905092915050565b6000806040838503121561205557612054611d74565b5b600061206385828601611e6a565b925050602061207485828601611d9f565b9150509250929050565b60008115159050919050565b6120938161207e565b82525050565b60006020820190506120ae600083018461208a565b92915050565b600080fd5b600080fd5b7f4e487b7100000000000000000000000000000000000000000000000000000000600052604160045260246000fd5b6120f682611ef2565b810181811067ffffffffffffffff82111715612115576121146120be565b5b80604052505050565b6000612128611d6a565b905061213482826120ed565b919050565b600067ffffffffffffffff821115612154576121536120be565b5b61215d82611ef2565b9050602081019050919050565b82818337600083830152505050565b600061218c61218784612139565b61211e565b9050828152602081018484840111156121a8576121a76120b9565b5b6121b384828561216a565b509392505050565b600082601f8301126121d0576121cf6120b4565b5b81356121e0848260208601612179565b91505092915050565b60008060408385031215612200576121ff611d74565b5b600061220e85828601611d9f565b925050602083013567ffffffffffffffff81111561222f5761222e611d79565b5b61223b858286016121bb565b9150509250929050565b6000819050919050565b600061226a61226561226084611e21565b612245565b611e21565b9050919050565b600061227c8261224f565b9050919050565b600061228e82612271565b9050919050565b61229e81612283565b82525050565b60006020820190506122b96000830184612295565b92915050565b6122c881611d7e565b82525050565b60006020820190506122e360008301846122bf565b92915050565b6122f281611e41565b82525050565b600060208201905061230d60008301846122e9565b92915050565b600060e082019050612328600083018a6122bf565b61233560208301896122e9565b81810360408301526123478188611f03565b905061235660608301876122bf565b81810360808301526123688186611f03565b905061237760a083018561208a565b61238460c08301846122bf565b98975050505050505050565b6000806000606084860312156123a9576123a8611d74565b5b600084013567ffffffffffffffff8111156123c7576123c6611d79565b5b6123d3868287016121bb565b935050602084013567ffffffffffffffff8111156123f4576123f3611d79565b5b612400868287016121bb565b925050604061241186828701611d9f565b9150509250925092565b600060a08201905061243060008301886122e9565b61243d60208301876122bf565b61244a60408301866122bf565b61245760608301856122bf565b612464608083018461208a565b9695505050505050565b60006020828403121561248457612483611d74565b5b600082013567ffffffffffffffff8111156124a2576124a1611d79565b5b6124ae848285016121bb565b91505092915050565b60006124c282612271565b9050919050565b6124d2816124b7565b82525050565b60006020820190506124ed60008301846124c9565b92915050565b7f496e697469616c20746573742072657175697265640000000000000000000000600082015250565b6000612529601583611eb7565b9150612534826124f3565b602082019050919050565b600060208201905081810360008301526125588161251c565b9050919050565b600060608201905061257460008301866122e9565b61258160208301856122e9565b61258e60408301846122bf565b949350505050565b61259f8161207e565b81146125aa57600080fd5b50565b6000815190506125bc81612596565b92915050565b6000602082840312156125d8576125d7611d74565b5b60006125e6848285016125ad565b91505092915050565b7f526574616b6520666565206661696c6564000000000000000000000000000000600082015250565b6000612625601183611eb7565b9150612630826125ef565b602082019050919050565b6000602082019050818103600083015261265481612618565b9050919050565b7f4e487b7100000000000000000000000000000000000000000000000000000000600052601160045260246000fd5b600061269582611d7e565b91506126a083611d7e565b92508282026126ae81611d7e565b915082820484148315176126c5576126c461265b565b5b5092915050565b60006126d782611d7e565b91506126e283611d7e565b92508282019050808211156126fa576126f961265b565b5b92915050565b600060408201905061271560008301856122e9565b61272260208301846122bf565b9392505050565b7f546f6b656e20726577617264206661696c656400000000000000000000000000600082015250565b600061275f601383611eb7565b915061276a82612729565b602082019050919050565b6000602082019050818103600083015261278e81612752565b9050919050565b60006040820190506127aa60008301856122bf565b6127b760208301846122bf565b9392505050565b7f496e636f7272656374204554482073656e740000000000000000000000000000600082015250565b60006127f4601283611eb7565b91506127ff826127be565b602082019050919050565b60006020820190508181036000830152612823816127e7565b9050919050565b7f546f6b656e207472616e73666572206661696c65640000000000000000000000600082015250565b6000612860601583611eb7565b915061286b8261282a565b602082019050919050565b6000602082019050818103600083015261288f81612853565b9050919050565b7f4e487b7100000000000000000000000000000000000000000000000000000000600052602260045260246000fd5b600060028204905060018216806128dd57607f821691505b6020821081036128f0576128ef612896565b5b50919050565b7f4e487b7100000000000000000000000000000000000000000000000000000000600052603260045260246000fd5b600061293082611d7e565b91507fffffffffffffffffffffffffffffffffffffffffffffffffffffffffffffffff82036129625761296161265b565b5b600182019050919050565b7f496e61637469766520636f757273650000000000000000000000000000000000600082015250565b60006129a3600f83611eb7565b91506129ae8261296d565b602082019050919050565b600060208201905081810360008301526129d281612996565b9050919050565b7f54657374206e6f7420636f6d706c657465640000000000000000000000000000600082015250565b6000612a0f601283611eb7565b9150612a1a826129d9565b602082019050919050565b60006020820190508181036000830152612a3e81612a02565b9050919050565b7f4e487b7100000000000000000000000000000000000000000000000000000000600052601260045260246000fd5b6000612a7f82611d7e565b9150612a8a83611d7e565b925082612a9a57612a99612a45565b5b828204905092915050565b6000612ab082611d7e565b9150612abb83611d7e565b9250828203905081811115612ad357612ad261265b565b5b92915050565b7f496e7374727563746f72207061796d656e74206661696c656400000000000000600082015250565b6000612b0f601983611eb7565b9150612b1a82612ad9565b602082019050919050565b60006020820190508181036000830152612b3e81612b02565b9050919050565b7f506c6174666f726d20666565206661696c656400000000000000000000000000600082015250565b6000612b7b601383611eb7565b9150612b8682612b45565b602082019050919050565b60006020820190508181036000830152612baa81612b6e565b9050919050565b7f4e6f7420656e726f6c6c65640000000000000000000000000000000000000000600082015250565b6000612be7600c83611eb7565b9150612bf282612bb1565b602082019050919050565b60006020820190508181036000830152612c1681612bda565b9050919050565b6000604082019050612c3260008301856122e9565b8181036020830152612c448184611f03565b90509392505050565b600081519050612c5c81611d88565b92915050565b600060208284031215612c7857612c77611d74565b5b6000612c8684828501612c4d565b91505092915050565b60008190508160005260206000209050919050565b60006020601f8301049050919050565b600082821b905092915050565b600060088302612cf17fffffffffffffffffffffffffffffffffffffffffffffffffffffffffffffffff82612cb4565b612cfb8683612cb4565b95508019841693508086168417925050509392505050565b6000612d2e612d29612d2484611d7e565b612245565b611d7e565b9050919050565b6000819050919050565b612d4883612d13565b612d5c612d5482612d35565b848454612cc1565b825550505050565b600090565b612d71612d64565b612d7c818484612d3f565b505050565b5b81811015612da057612d95600082612d69565b600181019050612d82565b5050565b601f821115612de557612db681612c8f565b612dbf84612ca4565b81016020851015612dce578190505b612de2612dda85612ca4565b830182612d81565b50505b505050565b600082821c905092915050565b6000612e0860001984600802612dea565b1980831691505092915050565b6000612e218383612df7565b9150826002028217905092915050565b612e3a82611eac565b67ffffffffffffffff811115612e5357612e526120be565b5b612e5d82546128c5565b612e68828285612da4565b600060209050601f831160018114612e9b5760008415612e89578287015190505b612e938582612e15565b865550612efb565b601f198416612ea986612c8f565b60005b82811015612ed157848901518255600182019150602085019450602081019050612eac565b86831015612eee5784890151612eea601f891682612df7565b8355505b6001600288020188555050505b505050505050565b60006040820190508181036000830152612f1d8185611f03565b9050612f2c60208301846122bf565b9392505050565b7f5465737420616c726561647920636f6d706c6574656400000000000000000000600082015250565b6000612f69601683611eb7565b9150612f7482612f33565b602082019050919050565b60006020820190508181036000830152612f9881612f5c565b905091905056fea26469706673582212203dd7784a4833c74dd034b3abdac691cfa0099fcd00a46f0d9e83b08078cbb66364736f6c63430008140033",
  "linkReferences": {},
  "deployedLinkReferences": {}
}